{
  "_format": "hh3-artifact-1",
  "contractName": "FLUSD",
  "sourceName": "contracts/FLUSD.sol",
  "abi": [
    {
      "inputs": [
        {
          "internalType": "address",
          "name": "initialOwner",
          "type": "address"
        }
      ],
      "stateMutability": "nonpayable",
      "type": "constructor"
    },
    {
      "inputs": [
        {
          "internalType": "address",
          "name": "spender",
          "type": "address"
        },
        {
          "internalType": "uint256",
          "name": "allowance",
          "type": "uint256"
        },
        {
          "internalType": "uint256",
          "name": "needed",
          "type": "uint256"
        }
      ],
      "name": "ERC20InsufficientAllowance",
      "type": "error"
    },
    {
      "inputs": [
        {
          "internalType": "address",
          "name": "sender",
          "type": "address"
        },
        {
          "internalType": "uint256",
          "name": "balance",
          "type": "uint256"
        },
        {
          "internalType": "uint256",
          "name": "needed",
          "type": "uint256"
        }
      ],
      "name": "ERC20InsufficientBalance",
      "type": "error"
    },
    {
      "inputs": [
        {
          "internalType": "address",
          "name": "approver",
          "type": "address"
        }
      ],
      "name": "ERC20InvalidApprover",
      "type": "error"
    },
    {
      "inputs": [
        {
          "internalType": "address",
          "name": "receiver",
          "type": "address"
        }
      ],
      "name": "ERC20InvalidReceiver",
      "type": "error"
    },
    {
      "inputs": [
        {
          "internalType": "address",
          "name": "sender",
          "type": "address"
        }
      ],
      "name": "ERC20InvalidSender",
      "type": "error"
    },
    {
      "inputs": [
        {
          "internalType": "address",
          "name": "spender",
          "type": "address"
        }
      ],
      "name": "ERC20InvalidSpender",
      "type": "error"
    },
    {
      "inputs": [
        {
          "internalType": "uint256",
          "name": "availableAt",
          "type": "uint256"
        }
      ],
      "name": "FaucetCooldown",
      "type": "error"
    },
    {
      "inputs": [
        {
          "internalType": "address",
          "name": "owner",
          "type": "address"
        }
      ],
      "name": "OwnableInvalidOwner",
      "type": "error"
    },
    {
      "inputs": [
        {
          "internalType": "address",
          "name": "account",
          "type": "address"
        }
      ],
      "name": "OwnableUnauthorizedAccount",
      "type": "error"
    },
    {
      "anonymous": false,
      "inputs": [
        {
          "indexed": true,
          "internalType": "address",
          "name": "owner",
          "type": "address"
        },
        {
          "indexed": true,
          "internalType": "address",
          "name": "spender",
          "type": "address"
        },
        {
          "indexed": false,
          "internalType": "uint256",
          "name": "value",
          "type": "uint256"
        }
      ],
      "name": "Approval",
      "type": "event"
    },
    {
      "anonymous": false,
      "inputs": [
        {
          "indexed": true,
          "internalType": "address",
          "name": "previousOwner",
          "type": "address"
        },
        {
          "indexed": true,
          "internalType": "address",
          "name": "newOwner",
          "type": "address"
        }
      ],
      "name": "OwnershipTransferred",
      "type": "event"
    },
    {
      "anonymous": false,
      "inputs": [
        {
          "indexed": true,
          "internalType": "address",
          "name": "from",
          "type": "address"
        },
        {
          "indexed": true,
          "internalType": "address",
          "name": "to",
          "type": "address"
        },
        {
          "indexed": false,
          "internalType": "uint256",
          "name": "value",
          "type": "uint256"
        }
      ],
      "name": "Transfer",
      "type": "event"
    },
    {
      "inputs": [],
      "name": "FAUCET_AMOUNT",
      "outputs": [
        {
          "internalType": "uint256",
          "name": "",
          "type": "uint256"
        }
      ],
      "stateMutability": "view",
      "type": "function"
    },
    {
      "inputs": [],
      "name": "FAUCET_COOLDOWN",
      "outputs": [
        {
          "internalType": "uint256",
          "name": "",
          "type": "uint256"
        }
      ],
      "stateMutability": "view",
      "type": "function"
    },
    {
      "inputs": [
        {
          "internalType": "address",
          "name": "owner",
          "type": "address"
        },
        {
          "internalType": "address",
          "name": "spender",
          "type": "address"
        }
      ],
      "name": "allowance",
      "outputs": [
        {
          "internalType": "uint256",
          "name": "",
          "type": "uint256"
        }
      ],
      "stateMutability": "view",
      "type": "function"
    },
    {
      "inputs": [
        {
          "internalType": "address",
          "name": "spender",
          "type": "address"
        },
        {
          "internalType": "uint256",
          "name": "value",
          "type": "uint256"
        }
      ],
      "name": "approve",
      "outputs": [
        {
          "internalType": "bool",
          "name": "",
          "type": "bool"
        }
      ],
      "stateMutability": "nonpayable",
      "type": "function"
    },
    {
      "inputs": [
        {
          "internalType": "address",
          "name": "account",
          "type": "address"
        }
      ],
      "name": "balanceOf",
      "outputs": [
        {
          "internalType": "uint256",
          "name": "",
          "type": "uint256"
        }
      ],
      "stateMutability": "view",
      "type": "function"
    },
    {
      "inputs": [],
      "name": "decimals",
      "outputs": [
        {
          "internalType": "uint8",
          "name": "",
          "type": "uint8"
        }
      ],
      "stateMutability": "pure",
      "type": "function"
    },
    {
      "inputs": [],
      "name": "faucet",
      "outputs": [],
      "stateMutability": "nonpayable",
      "type": "function"
    },
    {
      "inputs": [
        {
          "internalType": "address",
          "name": "",
          "type": "address"
        }
      ],
      "name": "lastFaucet",
      "outputs": [
        {
          "internalType": "uint256",
          "name": "",
          "type": "uint256"
        }
      ],
      "stateMutability": "view",
      "type": "function"
    },
    {
      "inputs": [
        {
          "internalType": "address",
          "name": "to",
          "type": "address"
        },
        {
          "internalType": "uint256",
          "name": "amount",
          "type": "uint256"
        }
      ],
      "name": "mint",
      "outputs": [],
      "stateMutability": "nonpayable",
      "type": "function"
    },
    {
      "inputs": [],
      "name": "name",
      "outputs": [
        {
          "internalType": "string",
          "name": "",
          "type": "string"
        }
      ],
      "stateMutability": "view",
      "type": "function"
    },
    {
      "inputs": [],
      "name": "owner",
      "outputs": [
        {
          "internalType": "address",
          "name": "",
          "type": "address"
        }
      ],
      "stateMutability": "view",
      "type": "function"
    },
    {
      "inputs": [],
      "name": "renounceOwnership",
      "outputs": [],
      "stateMutability": "nonpayable",
      "type": "function"
    },
    {
      "inputs": [],
      "name": "symbol",
      "outputs": [
        {
          "internalType": "string",
          "name": "",
          "type": "string"
        }
      ],
      "stateMutability": "view",
      "type": "function"
    },
    {
      "inputs": [],
      "name": "totalSupply",
      "outputs": [
        {
          "internalType": "uint256",
          "name": "",
          "type": "uint256"
        }
      ],
      "stateMutability": "view",
      "type": "function"
    },
    {
      "inputs": [
        {
          "internalType": "address",
          "name": "to",
          "type": "address"
        },
        {
          "internalType": "uint256",
          "name": "value",
          "type": "uint256"
        }
      ],
      "name": "transfer",
      "outputs": [
        {
          "internalType": "bool",
          "name": "",
          "type": "bool"
        }
      ],
      "stateMutability": "nonpayable",
      "type": "function"
    },
    {
      "inputs": [
        {
          "internalType": "address",
          "name": "from",
          "type": "address"
        },
        {
          "internalType": "address",
          "name": "to",
          "type": "address"
        },
        {
          "internalType": "uint256",
          "name": "value",
          "type": "uint256"
        }
      ],
      "name": "transferFrom",
      "outputs": [
        {
          "internalType": "bool",
          "name": "",
          "type": "bool"
        }
      ],
      "stateMutability": "nonpayable",
      "type": "function"
    },
    {
      "inputs": [
        {
          "internalType": "address",
          "name": "newOwner",
          "type": "address"
        }
      ],
      "name": "transferOwnership",
      "outputs": [],
      "stateMutability": "nonpayable",
      "type": "function"
    }
  ],
  "bytecode": "0x6080346200038657601f90601f19906001600160401b039062000dd938819003858101851683018481118482101762000295578392829160405283396020928391810103126200038657516001600160a01b03808216949093909185900362000386576200006c6200038a565b6008815267119b1bddc81554d160c21b848201526200008a6200038a565b906005978883526411931554d160da1b86840152815192848411620002955760039384546001948582811c921680156200037b575b8a8310146200036757818584931162000314575b508990858311600114620002b5575f92620002a9575b50505f1982871b1c191690841b1784555b8051948511620002955760049687548481811c911680156200028a575b82821014620002775783811162000230575b5080928611600114620001c85750849550908492915f95620001bc575b50501b925f19911b1c19161781555b8215620001a5575082546001600160a01b03198116831790935560405192167f8be0079c531659141344cd1fd0a4f28419497f9722a3daafe3b4186f6b6457e05f80a3610a2e9081620003ab8239f35b6024905f60405191631e4fbdf760e01b8352820152fd5b015193505f8062000146565b93929585908116885f52855f20955f905b89838310620002155750505010620001fb575b50505050811b01815562000155565b01519060f8845f19921b161c191690555f808080620001ec565b858701518955909701969485019488935090810190620001d9565b885f52815f20848d818a01901c820192848a106200026d575b018d1c019085905b8281106200026157505062000129565b5f815501859062000251565b9250819262000249565b602289634e487b7160e01b5f525260245ffd5b90607f169062000117565b634e487b7160e01b5f52604160045260245ffd5b015190505f80620000e9565b908987941691885f528b5f20925f5b8d828210620002fd5750508411620002e5575b505050811b018455620000fa565b01515f1983891b60f8161c191690555f8080620002d7565b8385015186558a97909501949384019301620002c4565b909150865f52895f208d86808601821c8301938d87106200035d575b9186959493918a9301901c01915b8281106200034e575050620000d3565b5f81558594508891016200033e565b9350829362000330565b634e487b7160e01b5f52602260045260245ffd5b91607f1691620000bf565b5f80fd5b60408051919082016001600160401b03811183821017620002955760405256fe608060409080825260049081361015610016575f80fd5b5f3560e01c90816306fdde031461078957508063095ea7b3146106e057806318160ddd146106c257806323b872dd146105d1578063313ce567146105b657806340c10f191461051b5780634799e212146104e457806370a08231146104ae578063715018a61461045357806376697640146104345780637d1d5d19146104185780638da5cb5b146103f057806395d89b41146102d0578063a9059cbb146102a0578063dd62ed3e14610257578063de5f72fd1461016c5763f2fde38b146100db575f80fd5b34610168576020366003190112610168576100f46108c6565b906100fd6109cc565b6001600160a01b03918216928315610152575050600554826bffffffffffffffffffffffff60a01b821617600555167f8be0079c531659141344cd1fd0a4f28419497f9722a3daafe3b4186f6b6457e05f80a3005b905f6024925191631e4fbdf760e01b8352820152fd5b5f80fd5b509034610168575f36600319011261016857335f526006602052805f2054610e1081018091116102445780421061022f5750335f52600660205242815f2055331561021957600254640ba43b7400928382018092116102065750600255335f525f602052805f20828154019055519081525f7fddf252ad1be2c89b69c2b068fc378daa952ba7f163c4a11628f55a4df523b3ef60203393a3005b601190634e487b7160e01b5f525260245ffd5b905f602492519163ec442f0560e01b8352820152fd5b90516312272bab60e01b815291820152602490fd5b601183634e487b7160e01b5f525260245ffd5b82346101685780600319360112610168576020906102736108c6565b61027b6108dc565b9060018060a01b038091165f5260018452825f2091165f528252805f20549051908152f35b82346101685780600319360112610168576020906102c96102bf6108c6565b60243590336108f2565b5160018152f35b509034610168575f366003190112610168578051905f835460018160011c90600183169283156103e6575b60209384841081146103d3578388529081156103b75750600114610363575b505050829003601f01601f191682019267ffffffffffffffff841183851017610350575082918261034c92528261087f565b0390f35b604190634e487b7160e01b5f525260245ffd5b5f878152929350837f8a35acfbc15ff81a39ae7d344fd709f28e8600b4aa8c65c6b64bfe7fe36bd19b5b8385106103a357505050508301015f808061031a565b80548886018301529301928490820161038d565b60ff1916878501525050151560051b84010190505f808061031a565b602289634e487b7160e01b5f525260245ffd5b91607f16916102fb565b8234610168575f3660031901126101685760055490516001600160a01b039091168152602090f35b8234610168575f3660031901126101685760209051610e108152f35b8234610168575f3660031901126101685760209051640ba43b74008152f35b34610168575f3660031901126101685761046b6109cc565b600580546001600160a01b031981169091555f906001600160a01b03167f8be0079c531659141344cd1fd0a4f28419497f9722a3daafe3b4186f6b6457e08280a3005b8234610168576020366003190112610168576020906001600160a01b036104d36108c6565b165f525f8252805f20549051908152f35b8234610168576020366003190112610168576020906001600160a01b036105096108c6565b165f5260068252805f20549051908152f35b5090346101685780600319360112610168576105356108c6565b90602435916105426109cc565b6001600160a01b03169283156105a1576002549083820180921161020657505f927fddf252ad1be2c89b69c2b068fc378daa952ba7f163c4a11628f55a4df523b3ef9260209260025585855284835280852082815401905551908152a3005b5f602492519163ec442f0560e01b8352820152fd5b8234610168575f366003190112610168576020905160068152f35b5034610168576060366003190112610168576105eb6108c6565b6105f36108dc565b906044359260018060a01b038216805f526001602052855f20335f52602052855f2054915f19831061062e575b6020876102c98888886108f2565b85831061069657811561068057331561066a57505f908152600160209081528682203383528152908690209185900390915582906102c9610620565b6024905f885191634a1406b160e11b8352820152fd5b6024905f88519163e602df0560e01b8352820152fd5b8651637dc7a0d960e11b8152339181019182526020820193909352604081018690528291506060010390fd5b8234610168575f366003190112610168576020906002549051908152f35b5090346101685780600319360112610168576106fa6108c6565b602435903315610773576001600160a01b031690811561075d5760209350335f5260018452825f20825f52845280835f205582519081527f8c5be1e5ebec7d5bd14f71427d1e84f3dd0314c0f7b2291e5b200ac8c7c3b925843392a35160018152f35b8251634a1406b160e11b81525f81860152602490fd5b825163e602df0560e01b81525f81860152602490fd5b90508234610168575f366003190112610168575f60035460018160011c9060018316928315610875575b60209384841081146103d357838852908115610859575060011461080357505050829003601f01601f191682019267ffffffffffffffff841183851017610350575082918261034c92528261087f565b60035f908152929350837fc2575a0e9e593c00f959f8c92f12db2869c3395a3b0502d05e2516446f71f85b5b838510610845575050505083010184808061031a565b80548886018301529301928490820161082f565b60ff1916878501525050151560051b840101905084808061031a565b91607f16916107b3565b602080825282518183018190529093925f5b8281106108b257505060409293505f838284010152601f8019910116010190565b818101860151848201604001528501610891565b600435906001600160a01b038216820361016857565b602435906001600160a01b038216820361016857565b916001600160a01b038084169283156109b4571692831561099c57825f525f60205260405f20549082821061096a5750817fddf252ad1be2c89b69c2b068fc378daa952ba7f163c4a11628f55a4df523b3ef92602092855f525f84520360405f2055845f5260405f20818154019055604051908152a3565b60405163391434e360e21b81526001600160a01b03919091166004820152602481019190915260448101829052606490fd5b60405163ec442f0560e01b81525f6004820152602490fd5b604051634b637e8f60e11b81525f6004820152602490fd5b6005546001600160a01b031633036109e057565b60405163118cdaa760e01b8152336004820152602490fdfea2646970667358221220b63d1ea151647ae8ba8f0087b9db50f356a6c5a047b08a950c6668bc9f71572664736f6c63430008180033",
  "linkReferences": {},
  "deployedLinkReferences": {},
  "immutableReferences": {},
  "inputSourceName": "project/contracts/FLUSD.sol",
  "buildInfoId": "solc-0_8_24-18aaaf9653fe06a692a5a8b4fa7b3b346022cdca"
}