{
  "_format": "hh3-artifact-1",
  "contractName": "DisputeResolver",
  "sourceName": "contracts/DisputeResolver.sol",
  "abi": [
    {
      "inputs": [
        {
          "internalType": "address",
          "name": "initialOwner",
          "type": "address"
        },
        {
          "internalType": "address",
          "name": "_operator",
          "type": "address"
        },
        {
          "internalType": "address",
          "name": "_admin",
          "type": "address"
        },
        {
          "internalType": "address",
          "name": "_escrowStateMachine",
          "type": "address"
        }
      ],
      "stateMutability": "nonpayable",
      "type": "constructor"
    },
    {
      "inputs": [
        {
          "internalType": "uint256",
          "name": "disputeId",
          "type": "uint256"
        }
      ],
      "name": "DisputeNotFound",
      "type": "error"
    },
    {
      "inputs": [
        {
          "internalType": "uint256",
          "name": "escrowId",
          "type": "uint256"
        }
      ],
      "name": "EscrowAlreadyDisputed",
      "type": "error"
    },
    {
      "inputs": [
        {
          "internalType": "uint256",
          "name": "disputeId",
          "type": "uint256"
        },
        {
          "internalType": "enum IDisputeResolver.DisputeState",
          "name": "current",
          "type": "uint8"
        }
      ],
      "name": "InvalidDisputeState",
      "type": "error"
    },
    {
      "inputs": [
        {
          "internalType": "uint16",
          "name": "bps",
          "type": "uint16"
        }
      ],
      "name": "InvalidRefundBps",
      "type": "error"
    },
    {
      "inputs": [
        {
          "internalType": "address",
          "name": "owner",
          "type": "address"
        }
      ],
      "name": "OwnableInvalidOwner",
      "type": "error"
    },
    {
      "inputs": [
        {
          "internalType": "address",
          "name": "account",
          "type": "address"
        }
      ],
      "name": "OwnableUnauthorizedAccount",
      "type": "error"
    },
    {
      "inputs": [
        {
          "internalType": "uint256",
          "name": "disputeId",
          "type": "uint256"
        },
        {
          "internalType": "uint64",
          "name": "windowClosesAt",
          "type": "uint64"
        }
      ],
      "name": "ResponseWindowOpen",
      "type": "error"
    },
    {
      "inputs": [
        {
          "internalType": "address",
          "name": "caller",
          "type": "address"
        }
      ],
      "name": "UnauthorizedCaller",
      "type": "error"
    },
    {
      "inputs": [],
      "name": "ZeroAddress",
      "type": "error"
    },
    {
      "anonymous": false,
      "inputs": [
        {
          "indexed": true,
          "internalType": "uint256",
          "name": "disputeId",
          "type": "uint256"
        }
      ],
      "name": "DisputeAutoResolved",
      "type": "event"
    },
    {
      "anonymous": false,
      "inputs": [
        {
          "indexed": true,
          "internalType": "uint256",
          "name": "disputeId",
          "type": "uint256"
        },
        {
          "indexed": true,
          "internalType": "uint256",
          "name": "escrowId",
          "type": "uint256"
        },
        {
          "indexed": false,
          "internalType": "address",
          "name": "buyer",
          "type": "address"
        },
        {
          "indexed": false,
          "internalType": "address",
          "name": "seller",
          "type": "address"
        }
      ],
      "name": "DisputeCreated",
      "type": "event"
    },
    {
      "anonymous": false,
      "inputs": [
        {
          "indexed": true,
          "internalType": "uint256",
          "name": "disputeId",
          "type": "uint256"
        },
        {
          "indexed": false,
          "internalType": "enum IDisputeResolver.Outcome",
          "name": "outcome",
          "type": "uint8"
        },
        {
          "indexed": false,
          "internalType": "uint16",
          "name": "refundBps",
          "type": "uint16"
        }
      ],
      "name": "DisputeResolved",
      "type": "event"
    },
    {
      "anonymous": false,
      "inputs": [
        {
          "indexed": true,
          "internalType": "uint256",
          "name": "disputeId",
          "type": "uint256"
        },
        {
          "indexed": false,
          "internalType": "string",
          "name": "sellerEvidenceCid",
          "type": "string"
        }
      ],
      "name": "DisputeResponded",
      "type": "event"
    },
    {
      "anonymous": false,
      "inputs": [
        {
          "indexed": true,
          "internalType": "uint256",
          "name": "disputeId",
          "type": "uint256"
        }
      ],
      "name": "DisputeUnderReview",
      "type": "event"
    },
    {
      "anonymous": false,
      "inputs": [
        {
          "indexed": true,
          "internalType": "address",
          "name": "previousOwner",
          "type": "address"
        },
        {
          "indexed": true,
          "internalType": "address",
          "name": "newOwner",
          "type": "address"
        }
      ],
      "name": "OwnershipTransferred",
      "type": "event"
    },
    {
      "inputs": [],
      "name": "BPS_DENOMINATOR",
      "outputs": [
        {
          "internalType": "uint16",
          "name": "",
          "type": "uint16"
        }
      ],
      "stateMutability": "view",
      "type": "function"
    },
    {
      "inputs": [],
      "name": "SELLER_RESPONSE_WINDOW",
      "outputs": [
        {
          "internalType": "uint64",
          "name": "",
          "type": "uint64"
        }
      ],
      "stateMutability": "view",
      "type": "function"
    },
    {
      "inputs": [],
      "name": "admin",
      "outputs": [
        {
          "internalType": "address",
          "name": "",
          "type": "address"
        }
      ],
      "stateMutability": "view",
      "type": "function"
    },
    {
      "inputs": [
        {
          "internalType": "uint256",
          "name": "disputeId",
          "type": "uint256"
        }
      ],
      "name": "autoResolve",
      "outputs": [],
      "stateMutability": "nonpayable",
      "type": "function"
    },
    {
      "inputs": [
        {
          "internalType": "uint256",
          "name": "escrowId",
          "type": "uint256"
        },
        {
          "internalType": "string",
          "name": "buyerEvidenceCid",
          "type": "string"
        }
      ],
      "name": "createDispute",
      "outputs": [
        {
          "internalType": "uint256",
          "name": "disputeId",
          "type": "uint256"
        }
      ],
      "stateMutability": "nonpayable",
      "type": "function"
    },
    {
      "inputs": [],
      "name": "disputeCount",
      "outputs": [
        {
          "internalType": "uint256",
          "name": "",
          "type": "uint256"
        }
      ],
      "stateMutability": "view",
      "type": "function"
    },
    {
      "inputs": [],
      "name": "escrowStateMachine",
      "outputs": [
        {
          "internalType": "contract IEscrowStateMachine",
          "name": "",
          "type": "address"
        }
      ],
      "stateMutability": "view",
      "type": "function"
    },
    {
      "inputs": [
        {
          "internalType": "uint256",
          "name": "disputeId",
          "type": "uint256"
        }
      ],
      "name": "getDispute",
      "outputs": [
        {
          "components": [
            {
              "internalType": "uint256",
              "name": "escrowId",
              "type": "uint256"
            },
            {
              "internalType": "address",
              "name": "buyer",
              "type": "address"
            },
            {
              "internalType": "address",
              "name": "seller",
              "type": "address"
            },
            {
              "internalType": "string",
              "name": "buyerEvidenceCid",
              "type": "string"
            },
            {
              "internalType": "string",
              "name": "sellerEvidenceCid",
              "type": "string"
            },
            {
              "internalType": "enum IDisputeResolver.DisputeState",
              "name": "state",
              "type": "uint8"
            },
            {
              "internalType": "enum IDisputeResolver.Outcome",
              "name": "outcome",
              "type": "uint8"
            },
            {
              "internalType": "uint16",
              "name": "refundBps",
              "type": "uint16"
            },
            {
              "internalType": "uint64",
              "name": "openedAt",
              "type": "uint64"
            },
            {
              "internalType": "uint64",
              "name": "respondedAt",
              "type": "uint64"
            },
            {
              "internalType": "uint64",
              "name": "resolvedAt",
              "type": "uint64"
            }
          ],
          "internalType": "struct IDisputeResolver.Dispute",
          "name": "",
          "type": "tuple"
        }
      ],
      "stateMutability": "view",
      "type": "function"
    },
    {
      "inputs": [
        {
          "internalType": "uint256",
          "name": "escrowId",
          "type": "uint256"
        }
      ],
      "name": "getDisputeIdByEscrowId",
      "outputs": [
        {
          "internalType": "uint256",
          "name": "",
          "type": "uint256"
        }
      ],
      "stateMutability": "view",
      "type": "function"
    },
    {
      "inputs": [],
      "name": "operator",
      "outputs": [
        {
          "internalType": "address",
          "name": "",
          "type": "address"
        }
      ],
      "stateMutability": "view",
      "type": "function"
    },
    {
      "inputs": [],
      "name": "owner",
      "outputs": [
        {
          "internalType": "address",
          "name": "",
          "type": "address"
        }
      ],
      "stateMutability": "view",
      "type": "function"
    },
    {
      "inputs": [],
      "name": "renounceOwnership",
      "outputs": [],
      "stateMutability": "nonpayable",
      "type": "function"
    },
    {
      "inputs": [
        {
          "internalType": "uint256",
          "name": "disputeId",
          "type": "uint256"
        },
        {
          "internalType": "enum IDisputeResolver.Outcome",
          "name": "outcome",
          "type": "uint8"
        },
        {
          "internalType": "uint16",
          "name": "refundBps",
          "type": "uint16"
        }
      ],
      "name": "resolveDispute",
      "outputs": [],
      "stateMutability": "nonpayable",
      "type": "function"
    },
    {
      "inputs": [
        {
          "internalType": "uint256",
          "name": "disputeId",
          "type": "uint256"
        },
        {
          "internalType": "string",
          "name": "sellerEvidenceCid",
          "type": "string"
        }
      ],
      "name": "respondToDispute",
      "outputs": [],
      "stateMutability": "nonpayable",
      "type": "function"
    },
    {
      "inputs": [
        {
          "internalType": "address",
          "name": "_admin",
          "type": "address"
        }
      ],
      "name": "setAdmin",
      "outputs": [],
      "stateMutability": "nonpayable",
      "type": "function"
    },
    {
      "inputs": [
        {
          "internalType": "address",
          "name": "esm",
          "type": "address"
        }
      ],
      "name": "setEscrowStateMachine",
      "outputs": [],
      "stateMutability": "nonpayable",
      "type": "function"
    },
    {
      "inputs": [
        {
          "internalType": "address",
          "name": "_operator",
          "type": "address"
        }
      ],
      "name": "setOperator",
      "outputs": [],
      "stateMutability": "nonpayable",
      "type": "function"
    },
    {
      "inputs": [
        {
          "internalType": "address",
          "name": "newOwner",
          "type": "address"
        }
      ],
      "name": "transferOwnership",
      "outputs": [],
      "stateMutability": "nonpayable",
      "type": "function"
    }
  ],
  "bytecode": "0x6080346200015357601f620017fb38819003918201601f19168301916001600160401b03831184841017620001575780849260809460405283398101031262000153576200004d816200016b565b6200005b602083016200016b565b9162000078606062000070604084016200016b565b92016200016b565b6001600160a01b039283169390919084156200013b57835f549160018060a01b03199680888516175f558260405194167f8be0079c531659141344cd1fd0a4f28419497f9722a3daafe3b4186f6b6457e05f80a316908115801562000130575b801562000125575b620001165750908391856001541617600155168360025416176002551690600354161760035560405161167a9081620001818239f35b63d92e233d60e01b8152600490fd5b5084841615620000e0565b5084831615620000d8565b604051631e4fbdf760e01b81525f6004820152602490fd5b5f80fd5b634e487b7160e01b5f52604160045260245ffd5b51906001600160a01b0382168203620001535756fe6080806040526004361015610012575f80fd5b5f905f3560e01c90816320bb56bb146112ed5750806326ecdd1f146112a25780634a565d761461127a578063570ca73514611252578063704b6c0214611207578063715018a6146111b057806379088a9d14611193578063857dbac914610f745780638da5cb5b14610f4d5780639c32c4471461083d578063a28889e11461081f578063b1138b501461064c578063b3ab15fb146105eb578063de49c3b2146103d4578063e1a45218146103b7578063e3a96cbd1461019d578063f2fde38b1461010f5763f851a440146100e4575f80fd5b3461010c578060031936011261010c576002546040516001600160a01b039091168152602090f35b80fd5b503461010c57602036600319011261010c576004356001600160a01b03818116918290036101995761013f6115e7565b8115610180575f54826001600160601b0360a01b8216175f55167f8be0079c531659141344cd1fd0a4f28419497f9722a3daafe3b4186f6b6457e05f80a380f35b604051631e4fbdf760e01b815260048101849052602490fd5b8280fd5b503461010c57602036600319011261010c5760043590806101406040516101c381611491565b828152826020820152826040820152606080820152606060808201528260a08201528260c08201528260e08201528261010082015282610120820152015260045482101561039e5760409181526005602052206001600160401b0360056040519261022d84611491565b8054845260018101546001600160a01b039081166020860152600282015416604085015261025d60038201611545565b606085015261026e60048201611545565b6080850152015461028160ff82166113cc565b60ff811660a084015260ff8160081c1661029a816113cc565b60c084015261ffff8160101c1660e0840152818160201c16610100840152818160601c1661012084015260a01c166101408201526040518091602082528051602083015260018060a01b03602082015116604083015260018060a01b0360408201511660608301526001600160401b0361014061034161032b6060850151610160608088015261018087019061138e565b6080850151868203601f190160a088015261138e565b9260a0810151610350816113cc565b60c086015260c0810151610363816113cc565b60e086015261ffff60e08201511661010086015282610100820151166101208601528261012082015116828601520151166101608301520390f35b604051634294e0f760e01b815260048101839052602490fd5b503461010c578060031936011261010c5760206040516127108152f35b503461010c57606036600319011261010c57600435602480359060048210156105685761ffff6044358181168082036105e7576002546001600160a01b0390811633036105d0576004548710156105b85786885260056020526040882092600584019081549360ff8516610447816113cc565b60038114610592576104588a6113cc565b89156105925750612710811161057b5750899594939291600361047e6104d8938b611612565b9460ff19161781556104908982611526565b805467ffffffffffffffff60a01b4260a01b167fffffffff0000000000000000ffffffffffffffffffffffffffffffff0000ffff90911663ffff0000601087901b1617179055565b60035416915491803b1561057757849283604492604051968795869463f4a07f8960e01b865260048601521680998401525af1801561056c57610554575b50507f42b22277498e41cf08ddb643c74773da0d1432307316e202dd0e528bf886063191604091825191610549816113cc565b82526020820152a280f35b61055d906114ad565b61056857835f610516565b8380fd5b6040513d84823e3d90fd5b8480fd5b879060405190637256d5e160e11b82526004820152fd5b6040516317308e1360e21b8152600481018c90526044918a6105b3826113cc565b820152fd5b604051634294e0f760e01b8152600481018890528590fd5b60405163d86ad9cf60e01b81523360048201528590fd5b8680fd5b503461010c57602036600319011261010c576004356001600160a01b038116908190036106485761061a6115e7565b8015610636576001600160601b0360a01b600154161760015580f35b60405163d92e233d60e01b8152600490fd5b5080fd5b503461010c57602036600319011261010c57600435600454811015610807578082526005602052604082206005810180549060ff821661068b816113cc565b806107e057506001600160401b03916203f480838260201c1601928084116107cc5780421693168084106107ae57507fffffffff0000000000000000ffffffffffffffffffffffffffffffff000000001660a09290921b67ffffffffffffffff60a01b169190911763271001031790558260018060a01b03600354169154823b15610648576040519063f4a07f8960e01b82526004820152818160448183612710978860248401525af1801561056c5761079a575b5050604080517f42b22277498e41cf08ddb643c74773da0d1432307316e202dd0e528bf886063192847f412a7cbb1b1479974a9cf061ccb3a39a8e7fcfc0b443a21d3aacac3a29c3c9a68780a2600182526020820152a280f35b6107a3906114ad565b61019957825f610740565b8560449160405191636178878760e11b835260048301526024820152fd5b634e487b7160e01b87526011600452602487fd5b6040516317308e1360e21b815260048101869052604491610800816113cc565b6024820152fd5b60249060405190634294e0f760e01b82526004820152fd5b503461010c578060031936011261010c576020600454604051908152f35b5034610dbc5761084c36611342565b600154909291906001600160a01b03163303610f3557815f52600760205260ff60405f205416610f1c57600354604051633e8cf2cb60e11b81526004810184905291906001600160a01b03166101e083602481845afa928315610db1575f93610dc0575b50803b15610dbc575f6040518092636c8cffc560e11b8252866004830152604060248301528183816108e6604482018c8a611471565b03925af18015610db157610d9e575b50600454935f198514610d8a57600185016004556020830151604080850151905193916001600160a01b03918216911661092e85611491565b868552602085015260408401526001600160401b038211610d76578690604051926109636020601f19601f84011601856114c0565b80845236818301116101995780602092838601378301015260608201526040518060208101106001600160401b03602083011117610d76576020810160405285815260808201528460a08201528460c08201528460e08201526001600160401b0342166101008201528461012082015284610140820152838552600560205260408520815181556001810160018060a01b03602084015116906001600160601b0360a01b9182825416179055600282019060018060a01b036040850151169082541617905560608201518051906001600160401b038211610cf457610a5882610a4f60038601546113ea565b60038601611422565b602090601f8311600114610d0857610a879291899183610c4e575b50508160011b915f199060031b1c19161790565b60038201555b60808201518051906001600160401b038211610cf457918187959493610ac660209a94610abd60048601546113ea565b60048601611422565b8990601f8311600114610c595793610c0e600560409795610b23866001978b977f1efc064a20015d5f957c4c8acb473eb1d3c0ce8e0f48ea8f1b8c4797b36097869d9b8892610c4e5750508160011b915f199060031b1c19161790565b60048201555b016001600160401b0361014060a088015197610b44896113cc565b610b4d896113cc565b60ff199860ff8a8654169116178455610b7360c0820151610b6d816113cc565b85611526565b60e0810151845463ffff0000191660109190911b63ffff000016178455610100810151845461012083015173ffffffffffffffffffffffffffffffff000000001990911660209290921b6bffffffffffffffff00000000169190911790841660601b67ffffffffffffffff60601b161784550151825467ffffffffffffffff60a01b1916911660a01b67ffffffffffffffff60a01b16179055565b88815260068b5281812088905560078b52208054909216179055808701519082015182516001600160a01b039283168152911681880152a3604051908152f35b015190505f80610a73565b906004840185528a852091855b601f1985168110610cda57506005604097956001868a967f1efc064a20015d5f957c4c8acb473eb1d3c0ce8e0f48ea8f1b8c4797b36097869c9a96610c0e96849a601f19811610610cc2575b505050811b016004820155610b29565b01515f1960f88460031b161c191690555f8080610cb2565b8183015184558b9950600190930192918c01918c01610c66565b634e487b7160e01b88526041600452602488fd5b9190600384018952602089209089935b601f1984168510610d5b576001945083601f19811610610d43575b505050811b016003820155610a8d565b01515f1960f88460031b161c191690555f8080610d33565b81810151835560209485019460019093019290910190610d18565b634e487b7160e01b5f52604160045260245ffd5b634e487b7160e01b86526011600452602486fd5b610da99195506114ad565b5f935f6108f5565b6040513d5f823e3d90fd5b5f80fd5b9092506101e0903d6101e011610f14575b610ddb82826114c0565b6101e0818381010312610dbc5760405191610df583611491565b81518352610e05602083016114e1565b6020840152610e16604083016114e1565b6040840152610e27606083016114e1565b6060840152610e38608083016114f5565b6080840152610e4960a083016114f5565b60a0840152610e5a60c083016114f5565b60c0840152610e6b60e08301611512565b60e0840152610100610e7e818401611512565b9084015261012080830151906008821015610dbc5784015280820161015f83011215610dbc57604051918260a08101106001600160401b0360a085011117610d765760a08301604052829181016101e0820111610dbc576101408101915b6101e082018310610ef757505050610140820152915f6108b0565b82519061ffff82168203610dbc5790815260209283019201610edc565b3d9150610dd1565b60405163797638b760e11b815260048101839052602490fd5b60405163d86ad9cf60e01b8152336004820152602490fd5b34610dbc575f366003190112610dbc575f546040516001600160a01b039091168152602090f35b34610dbc57610f8236611342565b600180549091906001600160a01b03163303610f355760045484101561117a57835f5260206005815260405f2093600585019460ff865416610fc3816113cc565b8061115a57506004016001600160401b0390818511610d76578795610ff286610fec84546113ea565b84611422565b5f90601f87116001146110c9575061109593927fb93c7773a192a459f82a6cd60e4fd3b6bd624ca36e1229e8f41c14f90a62f8c797989261104c8880611079955f916110be575b508160011b915f199060031b1c19161790565b90555b825467ffffffffffffffff60601b1916429190911660601b67ffffffffffffffff60601b16178255565b805460ff19166002179055604051838152938493840191611471565b0390a27ffc6a683c3774c5c2c7b35190558b13696e606dfa971ea6a99490942eb16bc32e5f80a2005b90508701358e611039565b90601f198716835f52865f20925f905b8282106111405750509261107992611095969592897fb93c7773a192a459f82a6cd60e4fd3b6bd624ca36e1229e8f41c14f90a62f8c79b9c9610611127575b5050600188811b01905561104f565b8601355f1960038b901b60f8161c191690558b80611118565b8784013585558c9a509384019392880192908801906110d9565b6040516317308e1360e21b815260048101899052604491610800816113cc565b604051634294e0f760e01b815260048101859052602490fd5b34610dbc575f366003190112610dbc5760206040516203f4808152f35b34610dbc575f366003190112610dbc576111c86115e7565b5f80546001600160a01b0319811682556001600160a01b03167f8be0079c531659141344cd1fd0a4f28419497f9722a3daafe3b4186f6b6457e08280a3005b34610dbc576020366003190112610dbc576004356001600160a01b03811690819003610dbc576112356115e7565b8015610636576001600160601b0360a01b60025416176002555f80f35b34610dbc575f366003190112610dbc576001546040516001600160a01b039091168152602090f35b34610dbc575f366003190112610dbc576003546040516001600160a01b039091168152602090f35b34610dbc576020366003190112610dbc576004356001600160a01b03811690819003610dbc576112d06115e7565b8015610636576001600160601b0360a01b60035416176003555f80f35b34610dbc576020366003190112610dbc5760043590815f52600760205260ff60405f2054161561132e57505f526006602052602060405f2054604051908152f35b602491634294e0f760e01b82526004820152fd5b6040600319820112610dbc57600435916024356001600160401b0392838211610dbc5780602383011215610dbc578160040135938411610dbc5760248483010111610dbc576024019190565b91908251928382525f5b8481106113b8575050825f602080949584010152601f8019910116010190565b602081830181015184830182015201611398565b600411156113d657565b634e487b7160e01b5f52602160045260245ffd5b90600182811c92168015611418575b602083101461140457565b634e487b7160e01b5f52602260045260245ffd5b91607f16916113f9565b601f821161142f57505050565b5f5260205f20906020601f840160051c83019310611467575b601f0160051c01905b81811061145c575050565b5f8155600101611451565b9091508190611448565b908060209392818452848401375f828201840152601f01601f1916010190565b61016081019081106001600160401b03821117610d7657604052565b6001600160401b038111610d7657604052565b90601f801991011681019081106001600160401b03821117610d7657604052565b51906001600160a01b0382168203610dbc57565b51906fffffffffffffffffffffffffffffffff82168203610dbc57565b51906001600160401b0382168203610dbc57565b90611530816113cc565b61ff0082549160081b169061ff001916179055565b9060405191825f8254611557816113ea565b908184526020946001916001811690815f146115c55750600114611587575b505050611585925003836114c0565b565b5f90815285812095935091905b8183106115ad57505061158593508201015f8080611576565b85548884018501529485019487945091830191611594565b9250505061158594925060ff191682840152151560051b8201015f8080611576565b5f546001600160a01b031633036115fa57565b60405163118cdaa760e01b8152336004820152602490fd5b61161b816113cc565b6001811461163c578061162f6002926113cc565b146116375790565b505f90565b50506127109056fea264697066735822122037bbe3d97be1e1d3457d1b664f536694dd88a69190bef3ff709fa5cd63ca42ae64736f6c63430008180033",
  "linkReferences": {},
  "deployedLinkReferences": {},
  "immutableReferences": {},
  "inputSourceName": "project/contracts/DisputeResolver.sol",
  "buildInfoId": "solc-0_8_24-ecaaafb588702b671e79f32fb3d2cbec5843c311"
}