{
  "_format": "hh3-artifact-1",
  "contractName": "EscrowStateMachine",
  "sourceName": "contracts/EscrowStateMachine.sol",
  "abi": [
    {
      "inputs": [
        {
          "internalType": "address",
          "name": "initialOwner",
          "type": "address"
        },
        {
          "internalType": "address",
          "name": "_operator",
          "type": "address"
        },
        {
          "internalType": "address",
          "name": "_platformFeeWallet",
          "type": "address"
        }
      ],
      "stateMutability": "nonpayable",
      "type": "constructor"
    },
    {
      "inputs": [],
      "name": "EnforcedPause",
      "type": "error"
    },
    {
      "inputs": [
        {
          "internalType": "uint256",
          "name": "escrowId",
          "type": "uint256"
        }
      ],
      "name": "EscrowNotFound",
      "type": "error"
    },
    {
      "inputs": [],
      "name": "ExpectedPause",
      "type": "error"
    },
    {
      "inputs": [
        {
          "internalType": "uint256",
          "name": "escrowId",
          "type": "uint256"
        },
        {
          "internalType": "uint64",
          "name": "availableAt",
          "type": "uint64"
        }
      ],
      "name": "GracePeriodNotElapsed",
      "type": "error"
    },
    {
      "inputs": [
        {
          "internalType": "uint16[5]",
          "name": "bps",
          "type": "uint16[5]"
        },
        {
          "internalType": "uint256",
          "name": "sum",
          "type": "uint256"
        }
      ],
      "name": "InvalidPayoutBps",
      "type": "error"
    },
    {
      "inputs": [
        {
          "internalType": "uint16",
          "name": "bps",
          "type": "uint16"
        }
      ],
      "name": "InvalidRefundBps",
      "type": "error"
    },
    {
      "inputs": [
        {
          "internalType": "uint256",
          "name": "escrowId",
          "type": "uint256"
        },
        {
          "internalType": "enum IEscrowStateMachine.State",
          "name": "current",
          "type": "uint8"
        },
        {
          "internalType": "enum IEscrowStateMachine.State",
          "name": "required",
          "type": "uint8"
        }
      ],
      "name": "InvalidState",
      "type": "error"
    },
    {
      "inputs": [
        {
          "internalType": "uint256",
          "name": "escrowId",
          "type": "uint256"
        },
        {
          "internalType": "enum IEscrowStateMachine.State",
          "name": "current",
          "type": "uint8"
        }
      ],
      "name": "InvalidTransition",
      "type": "error"
    },
    {
      "inputs": [
        {
          "internalType": "bytes32",
          "name": "orderId",
          "type": "bytes32"
        }
      ],
      "name": "OrderIdExists",
      "type": "error"
    },
    {
      "inputs": [
        {
          "internalType": "bytes32",
          "name": "orderId",
          "type": "bytes32"
        }
      ],
      "name": "OrderNotFound",
      "type": "error"
    },
    {
      "inputs": [
        {
          "internalType": "address",
          "name": "owner",
          "type": "address"
        }
      ],
      "name": "OwnableInvalidOwner",
      "type": "error"
    },
    {
      "inputs": [
        {
          "internalType": "address",
          "name": "account",
          "type": "address"
        }
      ],
      "name": "OwnableUnauthorizedAccount",
      "type": "error"
    },
    {
      "inputs": [],
      "name": "ReentrancyGuardReentrantCall",
      "type": "error"
    },
    {
      "inputs": [
        {
          "internalType": "address",
          "name": "token",
          "type": "address"
        }
      ],
      "name": "SafeERC20FailedOperation",
      "type": "error"
    },
    {
      "inputs": [
        {
          "internalType": "address",
          "name": "caller",
          "type": "address"
        }
      ],
      "name": "UnauthorizedCaller",
      "type": "error"
    },
    {
      "inputs": [],
      "name": "ZeroAddress",
      "type": "error"
    },
    {
      "inputs": [],
      "name": "ZeroAmount",
      "type": "error"
    },
    {
      "anonymous": false,
      "inputs": [
        {
          "indexed": true,
          "internalType": "uint256",
          "name": "escrowId",
          "type": "uint256"
        },
        {
          "indexed": false,
          "internalType": "uint128",
          "name": "frozenAmount",
          "type": "uint128"
        },
        {
          "indexed": false,
          "internalType": "string",
          "name": "evidenceCid",
          "type": "string"
        }
      ],
      "name": "DisputeInitiated",
      "type": "event"
    },
    {
      "anonymous": false,
      "inputs": [
        {
          "indexed": true,
          "internalType": "uint256",
          "name": "escrowId",
          "type": "uint256"
        },
        {
          "indexed": true,
          "internalType": "bytes32",
          "name": "orderId",
          "type": "bytes32"
        },
        {
          "indexed": true,
          "internalType": "address",
          "name": "buyer",
          "type": "address"
        },
        {
          "indexed": false,
          "internalType": "address",
          "name": "seller",
          "type": "address"
        },
        {
          "indexed": false,
          "internalType": "address",
          "name": "token",
          "type": "address"
        },
        {
          "indexed": false,
          "internalType": "uint128",
          "name": "amount",
          "type": "uint128"
        }
      ],
      "name": "EscrowCreated",
      "type": "event"
    },
    {
      "anonymous": false,
      "inputs": [
        {
          "indexed": true,
          "internalType": "uint256",
          "name": "escrowId",
          "type": "uint256"
        },
        {
          "indexed": false,
          "internalType": "uint128",
          "name": "sellerAmount",
          "type": "uint128"
        },
        {
          "indexed": false,
          "internalType": "uint128",
          "name": "feeAmount",
          "type": "uint128"
        }
      ],
      "name": "EscrowFinalized",
      "type": "event"
    },
    {
      "anonymous": false,
      "inputs": [
        {
          "indexed": true,
          "internalType": "address",
          "name": "previousOwner",
          "type": "address"
        },
        {
          "indexed": true,
          "internalType": "address",
          "name": "newOwner",
          "type": "address"
        }
      ],
      "name": "OwnershipTransferred",
      "type": "event"
    },
    {
      "anonymous": false,
      "inputs": [
        {
          "indexed": false,
          "internalType": "address",
          "name": "account",
          "type": "address"
        }
      ],
      "name": "Paused",
      "type": "event"
    },
    {
      "anonymous": false,
      "inputs": [
        {
          "indexed": true,
          "internalType": "uint256",
          "name": "escrowId",
          "type": "uint256"
        },
        {
          "indexed": false,
          "internalType": "uint128",
          "name": "buyerRefund",
          "type": "uint128"
        },
        {
          "indexed": false,
          "internalType": "uint128",
          "name": "sellerRelease",
          "type": "uint128"
        },
        {
          "indexed": false,
          "internalType": "uint128",
          "name": "feeAmount",
          "type": "uint128"
        }
      ],
      "name": "ResolutionExecuted",
      "type": "event"
    },
    {
      "anonymous": false,
      "inputs": [
        {
          "indexed": true,
          "internalType": "uint256",
          "name": "escrowId",
          "type": "uint256"
        },
        {
          "indexed": true,
          "internalType": "enum IEscrowStateMachine.State",
          "name": "from",
          "type": "uint8"
        },
        {
          "indexed": true,
          "internalType": "enum IEscrowStateMachine.State",
          "name": "to",
          "type": "uint8"
        },
        {
          "indexed": false,
          "internalType": "uint128",
          "name": "released",
          "type": "uint128"
        }
      ],
      "name": "StateAdvanced",
      "type": "event"
    },
    {
      "anonymous": false,
      "inputs": [
        {
          "indexed": false,
          "internalType": "address",
          "name": "account",
          "type": "address"
        }
      ],
      "name": "Unpaused",
      "type": "event"
    },
    {
      "inputs": [],
      "name": "BPS_DENOMINATOR",
      "outputs": [
        {
          "internalType": "uint16",
          "name": "",
          "type": "uint16"
        }
      ],
      "stateMutability": "view",
      "type": "function"
    },
    {
      "inputs": [],
      "name": "MAX_GRACE_PERIOD",
      "outputs": [
        {
          "internalType": "uint64",
          "name": "",
          "type": "uint64"
        }
      ],
      "stateMutability": "view",
      "type": "function"
    },
    {
      "inputs": [],
      "name": "MAX_PLATFORM_FEE_BPS",
      "outputs": [
        {
          "internalType": "uint16",
          "name": "",
          "type": "uint16"
        }
      ],
      "stateMutability": "view",
      "type": "function"
    },
    {
      "inputs": [],
      "name": "MIN_GRACE_PERIOD",
      "outputs": [
        {
          "internalType": "uint64",
          "name": "",
          "type": "uint64"
        }
      ],
      "stateMutability": "view",
      "type": "function"
    },
    {
      "inputs": [
        {
          "internalType": "uint256",
          "name": "escrowId",
          "type": "uint256"
        }
      ],
      "name": "advanceState",
      "outputs": [],
      "stateMutability": "nonpayable",
      "type": "function"
    },
    {
      "inputs": [
        {
          "internalType": "bytes32",
          "name": "orderId",
          "type": "bytes32"
        },
        {
          "internalType": "address",
          "name": "buyer",
          "type": "address"
        },
        {
          "internalType": "address",
          "name": "seller",
          "type": "address"
        },
        {
          "internalType": "address",
          "name": "token",
          "type": "address"
        },
        {
          "internalType": "uint128",
          "name": "amount",
          "type": "uint128"
        },
        {
          "internalType": "uint16[5]",
          "name": "payoutBps",
          "type": "uint16[5]"
        }
      ],
      "name": "createEscrow",
      "outputs": [
        {
          "internalType": "uint256",
          "name": "escrowId",
          "type": "uint256"
        }
      ],
      "stateMutability": "nonpayable",
      "type": "function"
    },
    {
      "inputs": [],
      "name": "defaultGracePeriod",
      "outputs": [
        {
          "internalType": "uint64",
          "name": "",
          "type": "uint64"
        }
      ],
      "stateMutability": "view",
      "type": "function"
    },
    {
      "inputs": [],
      "name": "disputeResolver",
      "outputs": [
        {
          "internalType": "address",
          "name": "",
          "type": "address"
        }
      ],
      "stateMutability": "view",
      "type": "function"
    },
    {
      "inputs": [],
      "name": "escrowCount",
      "outputs": [
        {
          "internalType": "uint256",
          "name": "",
          "type": "uint256"
        }
      ],
      "stateMutability": "view",
      "type": "function"
    },
    {
      "inputs": [
        {
          "internalType": "uint256",
          "name": "escrowId",
          "type": "uint256"
        },
        {
          "internalType": "uint16",
          "name": "refundBps",
          "type": "uint16"
        }
      ],
      "name": "executeResolution",
      "outputs": [],
      "stateMutability": "nonpayable",
      "type": "function"
    },
    {
      "inputs": [
        {
          "internalType": "uint256",
          "name": "escrowId",
          "type": "uint256"
        }
      ],
      "name": "finalize",
      "outputs": [],
      "stateMutability": "nonpayable",
      "type": "function"
    },
    {
      "inputs": [
        {
          "internalType": "uint256",
          "name": "escrowId",
          "type": "uint256"
        }
      ],
      "name": "getEscrow",
      "outputs": [
        {
          "components": [
            {
              "internalType": "bytes32",
              "name": "orderId",
              "type": "bytes32"
            },
            {
              "internalType": "address",
              "name": "buyer",
              "type": "address"
            },
            {
              "internalType": "address",
              "name": "seller",
              "type": "address"
            },
            {
              "internalType": "address",
              "name": "token",
              "type": "address"
            },
            {
              "internalType": "uint128",
              "name": "totalAmount",
              "type": "uint128"
            },
            {
              "internalType": "uint128",
              "name": "releasedAmount",
              "type": "uint128"
            },
            {
              "internalType": "uint128",
              "name": "frozenAmount",
              "type": "uint128"
            },
            {
              "internalType": "uint64",
              "name": "deliveredAt",
              "type": "uint64"
            },
            {
              "internalType": "uint64",
              "name": "gracePeriod",
              "type": "uint64"
            },
            {
              "internalType": "enum IEscrowStateMachine.State",
              "name": "state",
              "type": "uint8"
            },
            {
              "internalType": "uint16[5]",
              "name": "payoutBps",
              "type": "uint16[5]"
            }
          ],
          "internalType": "struct IEscrowStateMachine.Escrow",
          "name": "",
          "type": "tuple"
        }
      ],
      "stateMutability": "view",
      "type": "function"
    },
    {
      "inputs": [
        {
          "internalType": "bytes32",
          "name": "orderId",
          "type": "bytes32"
        }
      ],
      "name": "getEscrowByOrderId",
      "outputs": [
        {
          "components": [
            {
              "internalType": "bytes32",
              "name": "orderId",
              "type": "bytes32"
            },
            {
              "internalType": "address",
              "name": "buyer",
              "type": "address"
            },
            {
              "internalType": "address",
              "name": "seller",
              "type": "address"
            },
            {
              "internalType": "address",
              "name": "token",
              "type": "address"
            },
            {
              "internalType": "uint128",
              "name": "totalAmount",
              "type": "uint128"
            },
            {
              "internalType": "uint128",
              "name": "releasedAmount",
              "type": "uint128"
            },
            {
              "internalType": "uint128",
              "name": "frozenAmount",
              "type": "uint128"
            },
            {
              "internalType": "uint64",
              "name": "deliveredAt",
              "type": "uint64"
            },
            {
              "internalType": "uint64",
              "name": "gracePeriod",
              "type": "uint64"
            },
            {
              "internalType": "enum IEscrowStateMachine.State",
              "name": "state",
              "type": "uint8"
            },
            {
              "internalType": "uint16[5]",
              "name": "payoutBps",
              "type": "uint16[5]"
            }
          ],
          "internalType": "struct IEscrowStateMachine.Escrow",
          "name": "",
          "type": "tuple"
        }
      ],
      "stateMutability": "view",
      "type": "function"
    },
    {
      "inputs": [
        {
          "internalType": "bytes32",
          "name": "orderId",
          "type": "bytes32"
        }
      ],
      "name": "getEscrowIdByOrderId",
      "outputs": [
        {
          "internalType": "uint256",
          "name": "",
          "type": "uint256"
        }
      ],
      "stateMutability": "view",
      "type": "function"
    },
    {
      "inputs": [
        {
          "internalType": "uint256",
          "name": "escrowId",
          "type": "uint256"
        },
        {
          "internalType": "string",
          "name": "evidenceCid",
          "type": "string"
        }
      ],
      "name": "initiateDispute",
      "outputs": [],
      "stateMutability": "nonpayable",
      "type": "function"
    },
    {
      "inputs": [],
      "name": "operator",
      "outputs": [
        {
          "internalType": "address",
          "name": "",
          "type": "address"
        }
      ],
      "stateMutability": "view",
      "type": "function"
    },
    {
      "inputs": [],
      "name": "owner",
      "outputs": [
        {
          "internalType": "address",
          "name": "",
          "type": "address"
        }
      ],
      "stateMutability": "view",
      "type": "function"
    },
    {
      "inputs": [],
      "name": "pause",
      "outputs": [],
      "stateMutability": "nonpayable",
      "type": "function"
    },
    {
      "inputs": [],
      "name": "paused",
      "outputs": [
        {
          "internalType": "bool",
          "name": "",
          "type": "bool"
        }
      ],
      "stateMutability": "view",
      "type": "function"
    },
    {
      "inputs": [],
      "name": "platformFeeBps",
      "outputs": [
        {
          "internalType": "uint16",
          "name": "",
          "type": "uint16"
        }
      ],
      "stateMutability": "view",
      "type": "function"
    },
    {
      "inputs": [],
      "name": "platformFeeWallet",
      "outputs": [
        {
          "internalType": "address",
          "name": "",
          "type": "address"
        }
      ],
      "stateMutability": "view",
      "type": "function"
    },
    {
      "inputs": [],
      "name": "renounceOwnership",
      "outputs": [],
      "stateMutability": "nonpayable",
      "type": "function"
    },
    {
      "inputs": [
        {
          "internalType": "uint64",
          "name": "seconds_",
          "type": "uint64"
        }
      ],
      "name": "setDefaultGracePeriod",
      "outputs": [],
      "stateMutability": "nonpayable",
      "type": "function"
    },
    {
      "inputs": [
        {
          "internalType": "address",
          "name": "resolver",
          "type": "address"
        }
      ],
      "name": "setDisputeResolver",
      "outputs": [],
      "stateMutability": "nonpayable",
      "type": "function"
    },
    {
      "inputs": [
        {
          "internalType": "address",
          "name": "_operator",
          "type": "address"
        }
      ],
      "name": "setOperator",
      "outputs": [],
      "stateMutability": "nonpayable",
      "type": "function"
    },
    {
      "inputs": [
        {
          "internalType": "uint16",
          "name": "bps",
          "type": "uint16"
        }
      ],
      "name": "setPlatformFeeBps",
      "outputs": [],
      "stateMutability": "nonpayable",
      "type": "function"
    },
    {
      "inputs": [
        {
          "internalType": "address",
          "name": "wallet",
          "type": "address"
        }
      ],
      "name": "setPlatformFeeWallet",
      "outputs": [],
      "stateMutability": "nonpayable",
      "type": "function"
    },
    {
      "inputs": [
        {
          "internalType": "address",
          "name": "newOwner",
          "type": "address"
        }
      ],
      "name": "transferOwnership",
      "outputs": [],
      "stateMutability": "nonpayable",
      "type": "function"
    },
    {
      "inputs": [],
      "name": "unpause",
      "outputs": [],
      "stateMutability": "nonpayable",
      "type": "function"
    }
  ],
  "bytecode": "0x6080346200017a57601f62001c5038819003918201601f191683019291906001600160401b038411838510176200017e5781606092849260409687528339810103126200017a57620000518162000192565b6200006c83620000646020850162000192565b930162000192565b60017f9b779b17422d0df92223018b32b4d1fa46e071723d6817e2486d003becc55f00556001600160a01b0390828216801562000163575f8054610100600160a81b03198116600896871b610100600160a81b03161782558751951c8416907f8be0079c531659141344cd1fd0a4f28419497f9722a3daafe3b4186f6b6457e09080a3816003549416928315620001545750169081156200014357600180546001600160a01b0319169190911790556001600160f01b0319909116176401fa40007d60a11b1760035551611aa89081620001a88239f35b835163d92e233d60e01b8152600490fd5b63d92e233d60e01b8152600490fd5b8551631e4fbdf760e01b81525f6004820152602490fd5b5f80fd5b634e487b7160e01b5f52604160045260245ffd5b51906001600160a01b03821682036200017a5756fe6080806040526004361015610012575f80fd5b5f3560e01c90816305261aea14611458575080630c4daa91146112c057806322dcd13e1461129c57806338709467146112215780633bc1f7b3146111b65780633f4ba83a1461114f578063449b9f3414610c3f5780634661964914610c2257806351436c3c14610ae4578063570ca73514610abc5780635c975abb14610a9b578063675ac67a14610a7e578063705d5f2414610a54578063715018a6146109f95780637d19e596146108bb5780638456cb5914610864578063883a0038146108475780638d01513c1461082b5780638da5cb5b14610800578063924e63f6146107b9578063988f9cd714610762578063b3ab15fb1461071b578063d919ff8a14610515578063d96d98ca146104bc578063e1a45218146104a0578063e20fc11814610478578063f2fde38b146103de578063f4a07f89146101875763f5a3f4af1461015b575f80fd5b34610183575f366003190112610183576002546040516001600160a01b039091168152602090f35b5f80fd5b3461018357604036600319011261018357600435602480359061ffff80831691828403610183576002546001600160a01b039390841633036103c8576101cb611878565b6004548610156103b157612710811161039c5750845f52600560205260405f2090600682019081549060ff8216906008821015610389576007820361035d57887f6f8b89d10599d25b8354f6556eed5781901cca9917ef0f484014666f336dc8d160608a8a8a8a8a60068b60ff191617905561026b60058201948554956001600160801b039283928392838a16996001600160801b0319169055886118a7565b6102c661029361028c61027e848c61176c565b9860035460a01c16896118a7565b809861176c565b986102a66004880191825460801c611785565b81546001600160801b031660809190911b6001600160801b031916179055565b169586610340575b169283610323575b16809381610306575b50505060405192835260208301526040820152a260015f80516020611a5383398151915255005b80600361031b940154169060035416906118d0565b8682816102df565b61033b848660038601541687600287015416906118d0565b6102d6565b610358878760038701541688600188015416906118d0565b6102ce565b6103806064928a9260405193637ee2c6d960e01b85526004850152830190611677565b60076044820152fd5b634e487b7160e01b5f9081526021600452fd5b60405190637256d5e160e11b82526004820152fd5b506040516305b3479760e11b815260048101869052fd5b5060405163d86ad9cf60e01b8152336004820152fd5b34610183576020366003190112610183576103f7611661565b6103ff611a24565b6001600160a01b03818116918215610460575f8054610100600160a81b03198116600893841b610100600160a81b031617825590911c91909116907f8be0079c531659141344cd1fd0a4f28419497f9722a3daafe3b4186f6b6457e09080a3005b604051631e4fbdf760e01b81525f6004820152602490fd5b34610183575f366003190112610183576003546040516001600160a01b039091168152602090f35b34610183575f3660031901126101835760206040516127108152f35b34610183576020366003190112610183576104d5611661565b6104dd611a24565b6001600160a01b03168015610503576001600160601b0360a01b60035416176003555f80f35b60405163d92e233d60e01b8152600490fd5b34610183576040366003190112610183576024600435813567ffffffffffffffff808211610183573660238301121561018357816004013590811161018357368482840101116101835761056761185b565b61056f611878565b60045483101561070457600154336001600160a01b03918216141590816106f5575b506106de57825f52600560205260405f209360068501805460ff81166008811015806106cb5781159081156106bf575b811561069c575b5061067657509286928192600760609660047f9dfaaa03b68be234e89cd8b8594a097328f1b6732278be4cfc6c790f656b78cf9a9b015460056106196001600160801b0392838160801c911661176c565b9801971696876001600160801b031982541617905560ff191617905560405195869485526040602086015282604086015201848401375f828201840152601f01601f19168101030190a260015f80516020611a5383398151915255005b6040516340fe44cb60e01b81526004810188905260449161069a9082870190611677565bfd5b90506106ac5760078114896105c8565b83634e487b7160e01b5f5260216004525ffd5b5050600681145f6105c1565b84634e487b7160e01b5f5260216004525ffd5b60405163d86ad9cf60e01b81523360048201528490fd5b90506002541633141585610591565b5050604051906305b3479760e11b82526004820152fd5b3461018357602036600319011261018357610734611661565b61073c611a24565b6001600160a01b03168015610503576001600160601b0360a01b60015416176001555f80f35b3461018357602036600319011261018357600435805f52600760205260ff60405f205416156107a1575f526006602052602060405f2054604051908152f35b602490604051906359485ed960e01b82526004820152fd5b34610183576020366003190112610183576107d2611661565b6107da611a24565b6001600160a01b03168015610503576001600160601b0360a01b60025416176002555f80f35b34610183575f366003190112610183575f5460405160089190911c6001600160a01b03168152602090f35b34610183575f3660031901126101835760206040516103e88152f35b34610183575f366003190112610183576020604051620151808152f35b34610183575f3660031901126101835761087c611a24565b61088461185b565b600160ff195f5416175f557f62e78cea01bee320cd4e420270b5ea74000d11b0c9f74754ebdbfc544b05a2586020604051338152a1005b34610183576020366003190112610183576004356108d76117f9565b506004548110156109e1575f5260056020526109dd60405f20604051906108fd826117a0565b8054825260018060a01b03806001830154166020840152806002830154166040840152600382015416606083015260048101546001600160801b0390818116608085015260801c60a0840152600582015490811660c084015267ffffffffffffffff8160801c1660e084015260c01c61010083015261098760ff60068301541661012084016117ed565b600760405191015461ffff908181168352818160101c166020840152818160201c166040840152818160301c16606084015260401c1660808201526109cb816117d1565b61014082015260405191829182611684565b0390f35b602490604051906305b3479760e11b82526004820152fd5b34610183575f36600319011261018357610a11611a24565b5f8054610100600160a81b03198116825560081c6001600160a01b03167f8be0079c531659141344cd1fd0a4f28419497f9722a3daafe3b4186f6b6457e08280a3005b34610183575f36600319011261018357602067ffffffffffffffff60035460b01c16604051908152f35b34610183575f366003190112610183576020600454604051908152f35b34610183575f36600319011261018357602060ff5f54166040519015158152f35b34610183575f366003190112610183576001546040516001600160a01b039091168152602090f35b34610183576020806003193601126101835760043590610b026117f9565b50815f526007815260ff60405f20541615610c09576109dd915f526006815260405f20545f526005815260405f2060405191610b3d836117a0565b8154835260018060a01b038060018401541682850152806002840154166040850152600383015416606084015260048201546001600160801b0390818116608086015260801c60a0850152600583015490811660c085015267ffffffffffffffff8160801c1660e085015260c01c610100840152610bc660ff60068401541661012085016117ed565b6007604051920154809161ffff9283918282168652828260101c16818701521c166040840152818160301c16606084015260401c1660808201526109cb816117d1565b6040516359485ed960e01b815260048101839052602490fd5b34610183575f36600319011261018357602060405162278d008152f35b3461018357610140366003190112610183576024356001600160a01b038116810361018357604435906001600160a01b038216820361018357606435916001600160a01b038316830361018357608435916001600160801b0383168303610183573661014411610183576001546001600160a01b0316330361113757610cc361185b565b610ccb611878565b6001600160a01b038116158015611126575b8015611115575b610503576001600160801b03831615611103576004355f52600760205260ff60405f2054166110ea575f92835b600580861015610d565785901b60a4013561ffff8116809103610183578101809111610d4257600190940193610d11565b634e487b7160e01b5f52601160045260245ffd5b5090935061271081036110a15750600454925f198414610d42576001840160045567ffffffffffffffff60035460b01c1660405190610d94826117a0565b60043582526001600160a01b03848116602084015285811660408085019190915290881660608401526001600160801b03841660808401525f60a0840181905260c0840181905260e0840152610100830191909152600161012083015251610dfb816117d1565b60a4815b61014482106110895750506101408201525f8581526005602081815260409283902084518155908401516001820180546001600160a01b03199081166001600160a01b0393841617909155938501516002830180548616918316919091179055606085015160038301805490951691161790925560808084015160a0850151821b6001600160801b0319166001600160801b0391821617600485015560c08086015160e087015161010088015167ffffffffffffffff60801b9190951b169216919091176001600160c01b03199290911b9190911617908201556101208201519091600882101561107557610efa6101409260068501611754565b0151905f915f5b60058110611050575050600701556004355f5260066020528360405f2055600760205260405f20600160ff198254161790556040516323b872dd60e01b5f5260018060a01b038316600452306024526001600160801b03821660445260205f6064818060018060a01b038b165af160015f5114811615611028575b816040525f6060521561100a5750604080516001600160a01b0394851681529584166020878101919091526001600160801b039290921690860152939116906004359083907f95f80cc16a2d54215e5cbf58259c2c8b3dfbf4ecb9e5d92f1235965545bc82ae90606090a4610ff08161194e565b5060015f80516020611a5383398151915255604051908152f35b635274afe760e01b81526001600160a01b0386166004820152602490fd5b6001811516611047573d156001600160a01b0388163b15151616610f7c565b503d5f823e3d90fd5b9092602060019161ffff9081875116918560041b92831b921b19161794019101610f01565b634e487b7160e01b5f52602160045260245ffd5b6020809161109684611652565b815201910190610dff565b604051630d7df7d960e11b815260a45f600483015b600582106110c95760c4848660a4820152fd5b60208060019261ffff6110db87611652565b168152019301910190916110b6565b6024604051637c230c2b60e11b81526004356004820152fd5b604051631f2a200560e01b8152600490fd5b506001600160a01b03841615610ce4565b506001600160a01b03821615610cdd565b60405163d86ad9cf60e01b8152336004820152602490fd5b34610183575f36600319011261018357611167611a24565b5f5460ff8116156111a45760ff19165f557f5db9ee0a495bf2e6ff9c91a7834c1ba4fdd244a5e8aa4e537bd38aeae4b073aa6020604051338152a1005b604051638dfc202b60e01b8152600490fd5b346101835760203660031901126101835760043561ffff8116808203610183576111de611a24565b6103e8811161120957506003805461ffff60a01b191660a09290921b61ffff60a01b16919091179055005b60249060405190637256d5e160e11b82526004820152fd5b346101835760203660031901126101835760043567ffffffffffffffff81168082036101835761124f611a24565b62015180811090811561128f575b50611103576003805467ffffffffffffffff60b01b191660b09290921b67ffffffffffffffff60b01b16919091179055005b62278d009150118261125d565b34610183575f36600319011261018357602061ffff60035460a01c16604051908152f35b3461018357602036600319011261018357600154600435906001600160a01b03163303611137576112ef61185b565b6112f7611878565b6004548110156109e157805f52600560205260405f20600681019160ff83541691600883101580611075578315801561144c575b81811561143c575b811561142c575b5061140857611075576001830160ff8111610d425760ff16936008851015611075578461136691611754565b5f8091600485036113f4575b600586146113c7575b506110755760207fa2a2c9df147a12d52d4d5b5b9c392dbf0edbb364b9de819dcdf3683fcfec8966916001600160801b0360405191168152a460015f80516020611a5383398151915255005b600501805467ffffffffffffffff60801b19164260801b67ffffffffffffffff60801b161790558561137b565b9150505f61140284846119c6565b91611372565b6040516340fe44cb60e01b81526004810184905260449061069a6024820187611677565b905061107557600784148161133a565b9050611075576006841481611333565b50505f6005841461132b565b3461018357602036600319011261018357600154600435916001600160a01b03918216330361163d575061148a61185b565b611492611878565b60045482101561162457815f52600560205260405f209060068201805460ff8116600881101561107557600581036115f65750600584015467ffffffffffffffff90818160c01c9160801c1601818111610d4257811680914216106115d85750917f35e12f0a42be2d5a5b8500da4145fa0d60c22cf432b93c076c1cf4b3c1378d099391600660409460ff191617905560048201918254926001600160801b039061157661ffff916102a66115626115548560078901548c1c16878b166118a7565b9460035460a01c16856118a7565b9361156d858261176c565b9860801c611785565b611594600384019383866002818854169301541697169687916118d0565b168092816115be575b50505082519182526020820152a260015f80516020611a5383398151915255005b806115d09354169060035416906118d0565b85818161159d565b856044916040519163174296a360e21b835260048301526024820152fd5b604051637ee2c6d960e01b81526004810187905260649161161b906024830190611677565b60056044820152fd5b6040516305b3479760e11b815260048101839052602490fd5b63d86ad9cf60e01b8152336004820152602490fd5b359061ffff8216820361018357565b600435906001600160a01b038216820361018357565b9060088210156110755752565b9190916101e081019280518252602090602081015160018060a01b038091166020850152806040830151166040850152606082015116606084015260808101516001600160801b0380911660808501528060a08301511660a085015260c08201511660c084015260e081015167ffffffffffffffff80911660e0850152610100908183015116908401526117216101208083015190850190611677565b6101408091015192015f905b6005821061173b5750505050565b828060019261ffff87511681520194019101909261172d565b9060088110156110755760ff80198354169116179055565b6001600160801b039182169082160391908211610d4257565b9190916001600160801b0380809416911601918211610d4257565b610160810190811067ffffffffffffffff8211176117bd57604052565b634e487b7160e01b5f52604160045260245ffd5b60a0810190811067ffffffffffffffff8211176117bd57604052565b60088210156110755752565b60405190611806826117a0565b815f81525f60208201525f60408201525f60608201525f60808201525f60a08201525f60c08201525f60e08201525f6101008201525f61012082015261014060405191611852836117d1565b60a03684370152565b60ff5f541661186657565b60405163d93c066560e01b8152600490fd5b5f80516020611a5383398151915260028154146118955760029055565b604051633ee5aeb560e01b8152600490fd5b6001600160801b039161ffff16908216818102918115918304141715610d425761271090041690565b60405163a9059cbb60e01b5f9081526001600160a01b039384166004526024949094529260209060448180855af160015f511481161561192f575b836040521561191957505050565b635274afe760e01b835216600482015260249150fd5b600181151661194557813b15153d15161661190b565b833d5f823e3d90fd5b5f52600560205260405f209060048201918254926001600160801b039061197f61ffff6007850154168387166118a7565b94828616156119bd576119bb9392916102a68761199e9360801c611785565b60018060a01b0360028160038501541693015416908516916118d0565b565b505f9450505050565b9190915f52600560205260405f2060048101928354936001600160801b03916005811015611a105761ffff8160f0600761197f9460041c880101549160041b161c168387166118a7565b634e487b7160e01b5f52603260045260245ffd5b5f5460081c6001600160a01b03163303611a3a57565b60405163118cdaa760e01b8152336004820152602490fdfe9b779b17422d0df92223018b32b4d1fa46e071723d6817e2486d003becc55f00a2646970667358221220b178c320acced576032b97c1460e7f00faa799e878ca63ac674f537fac70b4b264736f6c63430008180033",
  "linkReferences": {},
  "deployedLinkReferences": {},
  "immutableReferences": {},
  "inputSourceName": "project/contracts/EscrowStateMachine.sol",
  "buildInfoId": "solc-0_8_24-cd169aa885f7bc087b6794686e34ca1971399542"
}